:020000040800F2
:10000000D006002089010008410F0008390F0008C0
:100010003D0F000845020008550F000800000000D1
:10002000000000000000000000000000490F000870
:100030004902000800000000450F00084D0F0008AD
:10004000A3010008A3010008A3010008A301000800
:10005000A3010008A3010008A3010008A3010008F0
:10006000A3010008A3010008A3010008A3010008E0
:10007000A3010008A3010008A3010008A3010008D0
:10008000A3010008A3010008A3010008A3010008C0
:10009000A3010008A3010008A3010008A3010008B0
:1000A000A3010008A3010008A3010008A3010008A0
:1000B000A3010008A3010008A3010008A301000890
:1000C000A3010008A3010008A3010008A301000880
:1000D000A3010008A3010008A3010008A301000870
:1000E000A3010008A3010008A301000800F002F822
:1000F00000F03AF80AA090E8000C82448344AAF188
:100100000107DA4501D100F02FF8AFF2090EBAE885
:100110000F0013F0010F18BFFB1A43F0010318473B
:1001200090170000B0170000103A24BF78C878C1BB
:10013000FAD8520724BF30C830C144BF04680C60ED
:10014000704700000023002400250026103A28BF35
:1001500078C1FBD8520728BF30C148BF0B60704739
:100160001FB51FBD10B510BD00F031F81146FFF7E7
:10017000F7FF00F05FFF00F04FF803B4FFF7F2FF66
:1001800003BC00F057F800000948804709480047C1
:10019000FEE7FEE7FEE7FEE7FEE7FEE7FEE7FEE737
:1001A000FEE7FEE704480549054A064B7047000094
:1001B000510F0008ED000008D0000020D0060020FC
:1001C000D0020020D002002070477047704775466B
:1001D00000F02CF8AE4605006946534620F00700B3
:1001E000854618B020B5FFF7DDFFBDE820404FF091
:1001F00000064FF000074FF000084FF0000BAC4630
:10020000ACE8C009ACE8C009ACE8C009ACE8C0097A
:1002100021F007018D46704710B50446AFF300800A
:100220002046BDE81040FFF7A8BF00000048704717
:100230001800002001491820ABBEFEE7260002008E
:1002400070470000FEE7000070470000B0B50446AC
:1002500000F02AF9054640F20C00C2F200000078D6
:10026000611C18BF044400BF00F01EF9401BA042EF
:10027000FAD3B0BD2DE9F04F82B00E68002E00F029
:10028000038141F20042C4F20102042340F2004E15
:10029000904208BF03234FF6FF7CC4F2010E009387
:1002A00000240123C1F2100C4FF0000A4FF00009A6
:1002B00049E000BF012704F00C030F229A402BEA0B
:1002C000020207FA03F34FEA9A051A4346F825207B
:1002D000D1F804B040F20C455FEACB22DEF80820EA
:1002E00054BF22EA080242EA0802C4F20105CEF82D
:1002F00008202A685FEA8B2354BF22EA080242EAF8
:1003000008022A605FEA8B33DEF8042054BF22EA39
:10031000080242EA08025FEACB33CEF80420DEF896
:1003200000204FF0010354BF22EA080242EA08020B
:10033000CEF800200E680AF1010A36FA0AF204F13A
:10034000040400F0A18003FA0AF816EA080FF1D0BD
:100350004E68664512DC122E56D8DFE806F0350BE3
:100360004549555555555555555555555555554D61
:10037000510000BFD1F80C9046E000BF4FF6FF726D
:10038000C1F2210296420FDC0022C1F21102964214
:100390001AD00022C1F21202964215D00022C1F2F8
:1003A0002102964210D02FE00022C1F22202964292
:1003B0000AD00022C1F23102964205D00022C1F2D9
:1003C0003202964220D100BF8A684AB1012A14BF86
:1003D000C0F81480C0F810804FF0080914E000BF86
:1003E0004FF0040910E000BFCA6802F108090BE0F1
:1003F0004FF0000908E000BFCA6802F1040903E0F9
:10040000CA6802F10C0900BF22460646BAF1080F7D
:1004100024BF203A043637680F25954027EA0505A2
:1004200009FA02F22A433260CA79D2067FF582AF16
:1004300041F21803C4F202031A68AEF57E7642F068
:1004400001021A601A6802F001020192019A2AF070
:10045000030256F802B040F60002C4F201029042D4
:1004600010D040F60042C4F2010290423FF422AFA5
:1004700041F20002C4F20102009F904208BF02272D
:1004800019E700BF002716E702B0BDE8F08F0000B3
:100490008068084018BF012070470000002A08BF8C
:1004A000090401617047000040F2C800C2F2000078
:1004B0000068704740F20C0040F2C801C2F2000030
:1004C000C2F2000100780A6810440860704700001A
:1004D00080B542F20000C4F20200016841F0100150
:1004E0000160032000F07AF80F2000F005F800F01A
:1004F00027F8002080BD000070B540F20C06C2F263
:10050000000640F214013278C2F200014FF47A730F
:100510000968B3FBF2F20446B1FBF2F1084600F0C1
:1005200027FB0F2C4FF0010508D838B94FF0FF30EA
:1005300021460022002500F025F87460284670BD91
:1005400082B041F21800C4F202000168022241F0B8
:1005500001010160016801F0010101910199416807
:1005600041F080514160406800F080500090009858
:100570000420C4F20100016862F31A61016002B054
:100580007047000010B54EF60C5CCEF2000CDCF8A3
:100590000030C3F3022E8EF00704042C28BF04247D
:1005A000BEF103034FF0FF3E0EFA04F438BF002300
:1005B000A14399400EFA03F39A43114300F00F024E
:1005C00000F160430901043A03F5644362440028E2
:1005D00048BF02F10C03197010BD00004EF60C511B
:1005E000CEF200010A684FF6FF031A4060F30A22B8
:1005F00042F0806040F0FD70086070472DE9F043E4
:1006000081B0002800F0858042F20008C4F20208A0
:100610000446D8F800000D4600F0070088420CD2CE
:10062000D8F8000020F007002843C8F80000D8F8E8
:10063000000000F00700A8426BD1206841F20409D5
:100640008107C4F2020917D5410705D5D9F8001072
:1006500041F4E061C9F80010010705D5D9F8001090
:1006600041F46051C9F80010D9F80010A26821F0D7
:10067000F0011143C9F80010C00741D1D8F80000BB
:1006800000F00700A8420CD9D8F8000020F00700BD
:100690002843C8F80000D8F8000000F00700A8427E
:1006A00037D12068410707D5D9F80010E26821F456
:1006B000E0611143C9F80010000708D5D9F800001F
:1006C000216920F4605040EAC100C9F80000D9F85F
:1006D000002002F00C00082841F20020C0F27A004D
:1006E00050D141F69E03C2F38341C0F60003595C2A
:1006F000D2033BD440F60010C0F23D00484341E035
:10070000606802280AD001282AD159F8041C8903FC
:1007100008D4012001B0BDE8F08300BF59F8041CE3
:100720008901F6D5D9F8001021F003010843C9F872
:100730000000FFF7B9FE064641F28837D9F80000FD
:10074000616800F00C00B0EB810F97D0FFF7ACFEB2
:10075000801BB842F2D9032001B0BDE8F08300BF8E
:1007600059F8041C8907D4D5DCE700BFD9F800206C
:1007700041F29C63C2F34042C0F600039A5C4843D6
:10078000B0FBF2F0D9F8001041F28C62C1F3031112
:10079000C0F60002515C40F2140220FA01F140F26E
:1007A0001000C2F200000068C2F200021160FFF700
:1007B000A3FE002001B0BDE8F08300002DE9F04168
:1007C00082B0002868D00446007841F20006C007D5
:1007D000C4F2020625D0706800F00C0004281BD07B
:1007E000706800F00C00082802D17068C00313D4B0
:1007F0006068002800F06881B0F5A02F00F07C81CF
:10080000B0F5803F00F07C81306820F480303060AB
:10081000306820F4802076E13068800301D560687C
:10082000D0B32078800718D5706810F00C0F07D06F
:10083000706800F00C0008286ED17068C0036BD49B
:100840003068800702D52069012825D130686169A8
:1008500020F0F80040EAC1003060207800071FD483
:100860002078400732D4E56995B1706800F00C003B
:10087000082840F08F80012D0ED07068216A00F4A6
:1008800080328A4208D1616A00F47010884203D134
:10089000002002B0BDE8F081012002B0BDE8F08187
:1008A000A069002862D00020C4F242200121C0F8D3
:1008B0008014FFF7F9FD0546706A800700F18C800F
:1008C000FFF7F2FD401B0228F6D92AE1F06910F08B
:1008D000805808D1F06940F08050F061F06900F074
:1008E00080500090009847F20007C4F20007386873
:1008F000C00529D4386840F480703860FFF7D4FD13
:10090000054600BF3868C0051ED4FFF7CDFD401B6B
:100910006428F7D905E100BF2069002840F20000F3
:10092000C4F2422000F0828001210160FFF7BCFD8B
:10093000054600BF306880073FF588AFFFF7B4FD7C
:10094000401B0228F6D9ECE0E068002800F0808027
:10095000052800F09780012800F09880306A20F088
:1009600001003062306A20F0040092E00020C4F2FE
:1009700042200021C0F88014FFF796FD054600BF15
:10098000706A80077FF56CAFFFF78EFD401B022871
:10099000F6D9C6E00027C4F2422700203866FFF7E8
:1009A00083FD022D05460BD13068800140F1BE80E9
:1009B000FFF77AFD401B02284FF00300F4D968E7E7
:1009C000306880017FF564AFFFF76EFD401B0228A1
:1009D0004FF00300F4D95CE740F21400C2F20000CB
:1009E000006844F6D351C1F26201A0FB0101480A3C
:1009F000019000BF00BF0198411E002801913FF403
:100A00002FAF00BF0198411E002801913FF428AF8D
:100A100000BF0198411E002801913FF421AF00BFA3
:100A20000198411E00280191E4D119E700210160DD
:100A3000FFF73AFD054600BF306880077FF50DAF30
:100A4000FFF732FD401B02284FF00300F4D920E7E6
:100A5000306A20F001003062306A20F00400306219
:100A6000FFF722FD054641F2883700BF306A800754
:100A700020D5FFF719FD401BB8424FF00300F5D910
:100A800007E700BF306A40F004003062306A40F08F
:100A900001003062FFF708FD054641F2883700BFCC
:100AA000306A800706D4FFF7FFFC401BB842F7D935
:100AB00037E000BFB8F1000F7FF4D5AEF06920F049
:100AC0008050F061CFE600BF306820F480303060A5
:100AD000306820F480203060FFF7E6FC054600BF58
:100AE000306880037FF59DAEFFF7DEFC401B642875
:100AF0004FF00300F4D9CCE6306840F48020306039
:100B0000306840F480303060FFF7CEFC054600BF0F
:100B1000306880033FF585AEFFF7C6FC401B6428B4
:100B2000F6D9032002B0BDE8F08100BF206AB0F51D
:100B3000803F05D17168A26821F4003111437160D2
:100B40007168626A21F474111143084370600120D6
:100B50003866FFF7A9FC0446306880013FF598AE7F
:100B6000FFF7A2FC001B02284FF00300F4D990E627
:100B7000411E0020B0EB116F1CBF012070474EF2E8
:100B80001002CEF2000251604EF62351CEF2000167
:100B9000F0230B70072190601160704710B590F83A
:100BA0003C20012A4FF0020233D080F83D20026839
:100BB000D2F804E0D2F808C00C682EF0700323438A
:100BC00040F2FF74C4F20004A24253600ADCB2F1A6
:100BD000804F13D040F20043C4F200039A420DD07C
:100BE00011E000BF42F60043C4F201039A4205D06F
:100BF00040F60003C4F200039A4204D149682CF085
:100C00008003194391600121002280F83D1080F893
:100C10003C20104610BD0000002804BF0120704792
:100C200010B5044690F83D0028B9002084F83C0037
:100C3000204600F067F8022084F83D00206840F26A
:100C4000FF730268C4F2000342F6004C9842C4F2FB
:100C5000010C15DCB0F1804F1AD040F20041C4F213
:100C60000001884214D0984218DCB0F1804F1DD0AA
:100C700040F20041C4F20001884217D01AE000BFE0
:100C8000604505D040F60001C4F200018842EAD177
:100C9000A16822F070020A439842E6DD604505D063
:100CA00040F60001C4F20001884203D1216922F418
:100CB00040720A43A36922F08001D4F804E0E2689C
:100CC000194360450160C262C0F828E002D1616941
:100CD000CCF8301001214161002084F8461084F8DE
:100CE0003E1084F83F1084F8401084F8411084F8D6
:100CF000421084F8431084F8441084F8451084F8B6
:100D00003D1010BD81B00068B0F1804F02D001B03D
:100D1000704700BF41F21C00C4F20200016841F0BC
:100D200001010160006800F001000090009801B02E
:100D30007047000090F83D1001291CBF012070474A
:100D4000022180F83D10006840F2FF71C4F20001FA
:100D5000884209DCB0F1804F12D040F20041C4F269
:100D6000000188420CD012E042F60041C4F20101B9
:100D7000884205D040F60001C4F20001884206D145
:100D8000816801F00701062904BF0020704701684F
:100D900041F00101016000207047000080B590F82B
:100DA0003C20012A4FF0020200F0C28080F83D2072
:100DB000D0F800C04FF67772DCF8083023EA020260
:100DC000CCF808200B684F2B28DC1F2B44DD202B90
:100DD00045D0302B43D0402B40F0AC80D1F804E01C
:100DE000C968DCF82030DCF8202022F00102CCF8C1
:100DF0002020DCF8182022F0F00242EA011123F052
:100E00000A0242EA0E02CCF81810CCF82020DCF8D6
:100E1000081041F0470121F0300180E06F2B27DD01
:100E2000B3F5005F48D0B3F5805F7AD0702B40F007
:100E30008180D1E901E3C968DCF8082043EA0E03A8
:100E400022F47F4243EA01211143CCF80810DCF878
:100E5000081041F0770162E00BB1102B6AD1DCF889
:100E6000081021F07001194341F0070157E000BF5D
:100E7000502B35D0602B5DD1D1F804E0C968DCF887
:100E80002030DCF8202022F01002CCF82020DCF802
:100E9000182022F4704242EA013123F0A00242EA13
:100EA0000E12CCF81810CCF82020DCF8081041F015
:100EB000670121F0100132E0D1E901E3C968DCF8F3
:100EC000082043EA0E0322F47F4243EA0121114342
:100ED000CCF80810DCF8081041F480411FE000BF96
:100EE000D1F804E0C968DCF82030DCF8202022F0DA
:100EF0000102CCF82020DCF8182022F0F00242EAAF
:100F0000011123F00A0242EA0E02CCF81810CCF8C4
:100F10002020DCF8081041F0570121F02001CCF826
:100F200008100022012180F83D10002180F83C10BB
:100F3000104680BD0122F5E7FEE70000FEE7000055
:100F4000FEE700007047000070470000FFF7B2BAEC
:100F500070470000FEE70000F0B581B040F60004E5
:100F6000C4F20104204640210122FFF797FA40F223
:100F70007807C2F20007B888FFF768F92046022117
:100F8000FFF786FA40F20006C2F20006C8B904F57F
:100F900000604FF400510022FFF780FA2046022142
:100FA000FFF776FA0028F9D0B08848F21F511430C4
:100FB000C5F2EB11A0FB01125109642201FB1200E2
:100FC000B08004F5006528464FF400510122FFF778
:100FD00065FA204640210022FFF760FA7088B98840
:100FE000401AFFF733F920460221FFF751FAC0B942
:100FF00028464FF400510022FFF750FA2046022104
:10100000FFF746FA0028F9D0B08848F21F51143093
:10101000C5F2EB11A0FB01125109642201FB120081
:10102000B08028464FF40051012201B0BDE8F040E5
:10103000FFF734BA90B0FFF74BFA00240120CDE956
:101040000B44CDE9094406900A904FF4E0104FF4A8
:10105000803102250F9006A8CDE90714CDE90D5186
:10106000FFF7ACFB20B1EFF3108072B6FEE700BFD4
:101070000F20CDE900054FF48060CDE903046846F8
:1010800002210294FFF7BAFA20B1EFF3108072B692
:10109000FEE700BF41F21800C4F20200016840F60A
:1010A000000441F0100101600168C4F2010401F084
:1010B000100106910699016804F5006A41F02001CB
:1010C00001600168002201F0200106910699016883
:1010D0004FF4005641F00401016000684FF40051E4
:1010E00000F004000690069850460025FFF7D6F958
:1010F0002046482100224FF04808FFF7CFF9069616
:10110000022006AE0127099050463146CDE9077509
:10111000FFF7B0F8062006A9A1C120463146FFF727
:10112000A9F80320099020463146CDE906870895A5
:10113000FFF7A0F840F27807C2F200074FF08041B5
:10114000384640F8081F47214FF6FE720995CDE951
:101150000755CDE90055C0E90115C0E903258561B2
:10116000FFF75AFD20B1EFF3108072B6FEE700BF23
:101170004FF4805007F10806069006A93046FFF7A5
:101180000DFE28B1EFF3108072B600BFFEE700BF7E
:1011900069463046FFF702FD20B1EFF3108072B6CA
:1011A000FEE700BF3046FFF7C5FD40F2000540F204
:1011B0000009C2F200054FF0000BC4F2C82901E09B
:1011C000A7F800B06888A988484348F21F51C5F2C3
:1011D000EB11A0FB01014809B880FFF7BDFE09E053
:1011E00078884FF400510130C0B278805046012217
:1011F000FFF754F920460421FFF74AF90028DFD110
:1012000050464FF400510022FFF748F9787838B182
:10121000E888B7F8028000F059F906460CE000BFF4
:101220004FF496700026E8804FF000080120C4F2C9
:101230009636A7F80280787041F29E60C0F60000F2
:1012400030F81800643800F029F948F60001C4F2BB
:10125000186100F045F8494600F04CF90146304667
:1012600000F048F9494600F03BF800F0FBF8C726CB
:10127000F88003E0002EA6F10106B1D020464021FF
:101280000122FFF70BF9F88870B1B968C1F824B0F2
:101290004A6A824208D24A6A824205D24A6A824235
:1012A00002D24A6A8242F3D3204640210022FFF74D
:1012B000F5F8E988FA889142DCD0B868891A89B2D1
:1012C000C0F824B0426A8A42D4D2426A8A42D1D259
:1012D000426A8A42CED2426A8A42F3D3CAE7000007
:1012E0004FF47F0C1CEAD0121EBF1CEAD11392EA05
:1012F0000C0F93EA0C0F00F0858090EA010F48BFB5
:1013000042F4807240F4000C41F400002CF07F4164
:1013100020F07F4000B5A2EB030281420FF2081CCF
:10132000ACEB504E9EF800E0C0F100004FEA4E0ECC
:1013300000FB0EFC38BF49004FEA2C1C0CFB0EF3DF
:101340004FEACE1E0EEB635E4FEA112C0EFB0CFC37
:101350004FEAC1214FEA1C5300FB031102F5FA02C8
:101360004FEA112C0EFB0CFC4FEA01314FEADC4C2A
:1013700000FB0C1142EB2242C14228BF09184CEB82
:1013800003335DF804EB10EB410143EBC250B2F5BF
:101390007C0F38BF704729D512F0F00F1CBF00F149
:1013A000C04000F0004070470081828384858687BA
:1013B00088898B8C8D8E8F919293959697999A9C14
:1013C0009D9FA0A2A3A5A7A8AAACAEB0B2B3B5B783
:1013D000B9BCBEC0C2C5C7C9CCCED1D4D7D9DCDF59
:1013E000E2E6E9ECF0F3F7FAFE0000004FEA400C09
:1013F0000CF1807CBCF17E4F28BF7047B0F1C0403B
:1014000000F03FB90CEAD11390EA010F48BF42F453
:101410008072624538BF634507D213F47F0F16D040
:1014200080EA010000F00040704710B500F0E3F8DA
:10143000097EFC3E00F005B880EA010000F00040A3
:10144000704780EA010000F0004000F01AB912F481
:101450007F0F04BF0248704780EA010000F011B915
:101460000000C07F41000B0ED3F19E0208D950F45A
:1014700000034FEA032323FA02F048BF40427047BB
:1014800010B500F0B8F800BF4992248000207047E2
:101490006FF0004282EA20007047000010F0004127
:1014A00048BF4042B0FA80F310FA03F2C3F19D0343
:1014B0000BD051EAC35101EB1220530638BF7047DD
:1014C00000F1010008BF20F001007047B0FA80F37E
:1014D00010FA03F2C3F19D030AD0D90501EB1220E3
:1014E000530638BF704700F1010008BF20F001002B
:1014F000704700004FF47F0C1CEAD0121EBF1CEA9C
:10150000D11392EA0C0F93EA0C0F00F0478090EA97
:10151000010F48BF42F480724FF0004C4CEA0020AB
:101520004CEA012102EB0302A0FB0113A2F5000229
:10153000002918BF43F001035B0028BF4FEA3303C3
:1015400042EB22425FEA132C4CEBC2502EBFBCEBA5
:10155000436FB2F57C0F70474FEA036CBCF1004F4C
:1015600008BF20F00100B2F57C0F38BF70470BD5E3
:1015700082F0FF0212F5803FC8BF704700F1C04003
:10158000D8BF00F00040704700F5000C5FEA4C0C3B
:1015900048BF7047B0F1C04000F073B80CEAD113F7
:1015A00090EA010F48BF42F48072624538BF63453C
:1015B00004D280EA010000F00040704710B500F04E
:1015C0001AF800BF8900013E00F007B800F009B822
:1015D0005FEA410C5FEA1C6C08D080EA010000F071
:1015E00050B85FEA400C5FEA1C6CF6D14FF0004047
:1015F000A0F5800070470EF1020E2EF0030E5EF88B
:10160000044B244204D44FEA4102B2F17F4F11D877
:101610004FEA4003B3F17F4F0CD80ED14FEAD07C94
:101620000CEB4C0C0CF1020CB2F17F4F08BF4CEBF1
:10163000D17C04E04FF0080C01E04FEAD17C0CEBC8
:101640004C0324FA03F404F00704B4F1040C06D2AA
:101650000EEB840CBDE810404CF0010C6047DFE855
:101660000CF0070802024FF00040A0F5800010BD0A
:101670000846420018BFD2F1807288BF00F00040D7
:1016800010BDFF2141EAD050C005704700000000A6
:101690000000000001020304060708090102F81611
:1016A0005118E114000ED90DA202FB135602731E4D
:1016B000990EBF0E5108671D3C2370010922531576
:1016C000C605CB0FE004B50AA0159601320FEC0554
:1016D00048248803E301D403CD1C4A018616532510
:1016E000561262239B0B64004704D91DA909720E90
:1016F00013262421BF1EE311A00509022D05EA08C7
:10170000DC1A53058D0DD523AC16C408660D691A75
:1017100062031513BA14F61983198F0A8F1A750B01
:101720001019020B6E142D1592076E043719E80B71
:1017300039160418EF22CD0CFD10A222A2125D0969
:10174000F11F4714C9224A211810260E86069D084B
:10175000450707255F06E124A50FC61577081C0A73
:101760002104D00977188A00B1205B0C4F0BA51F0C
:10177000C10B21145B1C7F1FB30D1503AA194C1E4E
:10178000B31D9414D513BD11811C2B18400DEA18FC
:10179000580FB110001E431A341CD700F6092B084D
:1017A000D7203022C625EF12C9122301991E130635
:1017B0005F1609123B138626A70C1A0D1820581F16
:1017C000321F370956226B07C9021009EF029B1B13
:1017D000A71C9404AC06BD21C11BD0193E202F12BA
:1017E0007A251F17B100F8066B17C418DC0A7021A0
:1017F00045177E0F92175D19D2061C1ABD01AE1354
:10180000AE03390639263B030C0F8A10D710340C6F
:101810004A11E3211523021B0E1C2411F10FFD2098
:101820002D25E50E7C22ED257A059424401DFB2311
:10183000CB1FED152F02F41C281B9E186E24810C63
:10184000040813168823A0257C0221246410B807FD
:101850001A1D64200705751B261E3E10DE17E81BA7
:10186000F40CE51EB61A96117C12DE071F076213F0
:10187000FD00D2165F260715AE230C1F4C0E9621D5
:101880007011690ABA04FB03280BBA247A1588136D
:101890008D1D0E0C430A8A208309B8174F1B0203C3
:1018A0000405060708090A0B0C0D0E0F10100000A6
:1018B000D0180008000000201800000028010008CF
:1018C000E818000818000020B806000044010008CD
:1018D0000100D0071E0064000A00000001000000A3
:0818E000100000000024F400D8
:04000005080000ED02
:00000001FF
